:0400000055EF00F0C8
:100008004B82FACF03F0FBCF04F0E9CF05F0EACF3B
:1000180006F0E1CF07F0E2CF08F0D9CF09F0DACF48
:100028000AF0F3CF0BF0F4CF0CF0F6CF0DF0F7CFCA
:100038000EF0F8CF0FF0F5CF10F04BC011F04CC018
:1000480012F04DC013F04EC014F0F2BC9DA003D0C6
:100058009EB0BEEC1AF014C04EF013C04DF012C0A2
:100068004CF011C04BF010C0F5FF0FC0F8FF0EC0E8
:10007800F7FF0DC0F6FF0CC0F4FF0BC0F3FF0AC07A
:10008800DAFF09C0D9FF08C0E2FF07C0E1FF06C0D8
:10009800EAFF05C0E9FF04C0FBFF03C0FAFF4B926B
:0600A8001100C3EF17F088
:1010000000010000000A00000064000000E8030086
:101010000010270000A086010040420F0080969833
:101020000000E1F50500CA9A3B414447484E53553C
:101030005C5F6065696A7277787B7EFFFFFFFFFF08
:10104000FF0D0A0D0A5374617274696E672053793B
:10105000736C6F6720617420256C750D0A00444D18
:10106000412054494D454F55542121210025642EDE
:1010700025642E25642E2564002575203A202573CD
:0D1080000D0A00286E756C6C29002E000012
:10108E00000E0001836F8A0E156E000E166E000E96
:10109E00186E1C0E176EDBEC18F015C080F016C023
:1010AE0081F01C0E000180198111D8A41200000ECF
:1010BE00826F280E886F010E896F080E866F86511B
:1010CE00D8B43CD020EE06F08851D9268951DA22C8
:1010DE00DE5098192DE1DE5099192AE1DE509A1949
:1010EE0027E1DE509B19D8A423D020EE0AF08851B8
:1010FE00D9268951DA22DE508C191AE1DE508D196B
:10110E00D8A416D020EE0CF08851D9268951DA22B7
:10111E00000EDF6E20EE92F088C0E1FF89C0E2FF84
:10112E00050EDBCFE3FFE806FCE2010E826F06D070
:10113E000D0E8827000E89238607C1D701010051A5
:10114E00011102110311D8B438D2FF0E0001A215FD
:10115E00606F000EA315616F000EA415626F000E76
:10116E00A515636F60C063F0626B616B606B20EE00
:10117E00A2F0000EDE14646FFF0EDE14656F000E1B
:10118E00DE14666F000EDE14676F66C067F065C012
:10119E0066F064C065F0646BA2C068F0A3C069F02D
:1011AE00A4C06AF0A5C06BF069C068F06AC069F0AF
:1011BE006BC06AF06B6B000E68156C6FFF0E6915D5
:1011CE006D6F000E6A156E6F000E6B156F6F20EE51
:1011DE00A2F0000EDE14706F000EDE14716F000EA2
:1011EE00DE14726FFF0EDE14736F190E05D0D890D9
:1011FE007333723371337033E82EF9D76C5170112B
:10120E00746F6D517111756F6E517211766F6F51E2
:10121E007311776F64517411786F65517511796F11
:10122E00665176117A6F675177117B6F6051781125
:10123E007C6F615179117D6F62517A117E6F6351AE
:10124E007B117F6F0101005100017C190FE101013B
:10125E00015100017D190AE10101025100017E19BF
:10126E0005E10101035100017F19D8A4A6D18251D5
:10127E00D8A4CED0280E886F010E896F280E846FE9
:10128E00010E856F080E876F8751D8B41AD020EEE5
:10129E000CF08451D9268551DA2210EE0CF08851CB
:1012AE00E1268951E222DE50E65CD8B004D084C03B
:1012BE0088F085C089F00D0E8427000E85238707E0
:1012CE00E3D720EE0CF08851D9268951DA22000E90
:1012DE00DF6E20EE92F088C0E1FF89C0E2FF050EBE
:1012EE00DBCFE3FFE806FCE2FF0E9815606F000E01
:1012FE009915616F000E9A15626F000E9B15636F44
:10130E0060C063F0626B616B606B20EE98F0000E54
:10131E00DE14646FFF0EDE14656F000EDE14666F52
:10132E00000EDE14676F66C067F065C066F064C0BD
:10133E0065F0646B98C068F099C069F09AC06AF065
:10134E009BC06BF069C068F06AC069F06BC06AF050
:10135E006B6B000E68156C6FFF0E69156D6F000ECE
:10136E006A156E6F000E6B156F6F20EE98F0000E03
:10137E00DE14706F000EDE14716F000EDE14726FCD
:10138E00FF0EDE14736F190E05D0D89073337233BF
:10139E0071337033E82EF9D76C517011746F6D5133
:1013AE007111756F6E517211766F6F517311776F78
:1013BE0064517411786F65517511796F665176119C
:1013CE007A6F675177117B6F605178117C6F615125
:1013DE0079117D6F62517A117E6F63517B117F6F30
:1013EE0020EE06F08851D9268951DA227CC0DEFF24
:1013FE007DC0DEFF7EC0DEFF7FC0DEFF20EE0AF086
:10140E008851D9268951DA228CC0DEFF8DC0DDFFCE
:10141E0091059011D8A41200920E156E000E166E44
:10142E00080E186E060E176E13EC12F00001836F85
:10143E008305D8A4120020EE92F010EE9CF0050E5B
:10144E00DBCFE3FFE806FCE2920E156E000E166E81
:10145E00B30E176E010E186E000E1A6E060E196E72
:10146E0071EC19F098C0A2F099C0A3F09AC0A4F044
:10147E009BC0A5F0FF0E010100150001606F000E6C
:10148E00010101150001616F000E0101021500013D
:10149E00626F000E010103150001636F60C063F0FF
:1014AE00626B616B606B000E010100150001646FD1
:1014BE00FF0E010101150001656F000E01010215FD
:1014CE000001666F000E010103150001676F66C013
:1014DE0067F065C066F064C065F0646B00C168F0CB
:1014EE0001C169F002C16AF003C16BF069C068F016
:1014FE006AC069F06BC06AF06B6B000E68156C6F9A
:10150E00FF0E69156D6F000E6A156E6F000E6B156E
:10151E006F6F000E010100150001706F000E0101CA
:10152E0001150001716F000E010102150001726FAD
:10153E00FF0E010103150001736F190E05D0D8902F
:10154E007333723371337033E82EF9D76C517011D7
:10155E00746F6D517111756F6E517211766F6F518F
:10156E007311776F64517411786F65517511796FBE
:10157E00665176117A6F675177117B6F60517811D2
:10158E00986F61517911996F62517A119A6F635107
:10159E007B119B6F020E916F000E906F8A0E156E6F
:1015AE00000E166E000E186E1C0E176E0CEC1AF056
:1015BE00EEEC19F00001836F12000E0E0001836F26
:1015CE001200000E0001D56F000ED46F000ED26F08
:1015DE00000ED16F000E286E140E276E000E2A6EAE
:1015EE00000E296E04EC19F027C0D4F028C0D5F0F7
:1015FE000001D451D511D8A41200900E156E010E13
:10160E00166E000E186E140E176EDBEC18F001013C
:10161E0090390F0B040AD8A41200FF0EA01500017A
:10162E00B56F000E0101A1150001B66F000E01018C
:10163E00A2150001B76F000E0101A3150001B86FCE
:10164E00B5C0B8F0B76BB66BB56B21EEA0F0000E5F
:10165E00DE14B96FFF0EDE14BA6F000EDE14BB6F10
:10166E00000EDE14BC6FBBC0BCF0BAC0BBF0B9C07C
:10167E00BAF0B96BA0C1BDF0A1C1BEF0A2C1BFF05E
:10168E00A3C1C0F0BEC0BDF0BFC0BEF0C0C0BFF0B1
:10169E00C06B000EBD15C16FFF0EBE15C26F000EE2
:1016AE00BF15C36F000EC015C46F21EEA0F0000E63
:1016BE00DE14C56F000EDE14C66F000EDE14C76F8B
:1016CE00FF0EDE14C86F190E05D0D890C833C7337D
:1016DE00C633C533E82EF9D7C151C511C96FC251F2
:1016EE00C611CA6FC351C711CB6FC451C811CC6F8D
:1016FE00B951C911CD6FBA51CA11CE6FBB51CB11B1
:10170E00CF6FBC51CC11D06FB551CD110101A06F6F
:10171E000001B651CE110101A16F0001B751CF11D9
:10172E000101A26F0001B851D0110101A36FFF0E8C
:10173E009C150001B56F000E01019D150001B66FDD
:10174E00000E01019E150001B76F000E01019F15DD
:10175E000001B86FB5C0B8F0B76BB66BB56B21EEC4
:10176E009CF0000EDE14B96FFF0EDE14BA6F000E81
:10177E00DE14BB6F000EDE14BC6FBBC0BCF0BAC073
:10178E00BBF0B9C0BAF0B96B9CC1BDF09DC1BEF043
:10179E009EC1BFF09FC1C0F0BEC0BDF0BFC0BEF0C5
:1017AE00C0C0BFF0C06B000EBD15C16FFF0EBE15E1
:1017BE00C26F000EBF15C36F000EC015C46F21EEB1
:1017CE009CF0000EDE14C56F000EDE14C66F000E08
:1017DE00DE14C76FFF0EDE14C86F190E05D0D89039
:1017EE00C833C733C633C533E82EF9D7C151C51137
:1017FE00C96FC251C611CA6FC351C711CB6FC45145
:10180E00C811CC6FB951C911CD6FBA51CA11CE6F73
:10181E00BB51CB11CF6FBC51CC11D06FB551CD1187
:10182E0001019C6F0001B651CE1101019D6F0001A7
:10183E00B751CF1101019E6F0001B851D0110101B6
:10184E009F6F9C2907E19D2905E19E2903E19F29B0
:10185E00D8B412000051A0190AE10151A11907E1F3
:10186E000251A21904E10351A319D8B4A1D0A05179
:10187E00A111A211A311D8B49BD0A02907E1A129CF
:10188E0005E1A22903E1A329D8B492D0A051A11158
:10189E00A211A311D8B428D0FF0E00110001B56F0C
:1018AE00FF0E010101110001B66FFF0E01010211C1
:1018BE000001B76F000E010103110001B86F0101A5
:1018CE00A0510001B51910E10101A1510001B61995
:1018DE000BE10101A2510001B71906E10101A3516B
:1018EE000001B819D8B464D00101A051A111A21100
:1018FE00A311D8B428D0FF0E00110001B56FFF0E52
:10190E00010101110001B66F000E0101021100016B
:10191E00B76F000E010103110001B86F0101A05154
:10192E000001B51910E10101A1510001B6190BE139
:10193E000101A2510001B71906E10101A3510001F5
:10194E00B819D8B435D00101A051A111A211A3111B
:10195E00D8B425D0FF0E00110001B56F0101015161
:10196E000001B66F010102510001B76F0101035171
:10197E000001B86F0101A0510001B51910E101017C
:10198E00A1510001B6190BE10101A2510001B719D5
:10199E0006E10101A3510001B819D8B409D0010123
:1019AE00A00505E1E00EA319A111A211D8A4120001
:1019BE00010192510001B66FB56B21EE92F0DECFB0
:1019CE00B7F0DDCFB8F0B8C0B7F0B86BFF0EB717F1
:1019DE00000EB817B551B7110101926F0001B65143
:1019EE00B8110101936F90510F0B0001B56FD89094
:1019FE00B537D890B535D36F010190510F0B00015B
:101A0E00B56F050EB56101D01200010190510F0B9B
:101A1E000001B56F050EB56543D0EC0ED325156EDE
:101A2E00166AFF0E162290EC1AF012000101A05158
:101A3E00A111A211A311D8B412000001D351B56F98
:101A4E00B66BB51FB61FB54BB62B010192510001F7
:101A5E00B525D16F010193510001B621D26FD1C0CE
:101A6E0027F0D2C028F0000E2A6E000E296E04EC6C
:101A7E0019F027C0D4F028C0D5F00001D451D511EB
:101A8E00D8A41200900EAA6F010EAB6FF5EC14F0F5
:101A9E00120092C115F093C116F090EC1AF01200DC
:101AAE0001019951010AD8B4C1D7F3D741D2250EFD
:101ABE0000016919D8B434D020EE02F02B50D9268B
:101ACE002C50DA22DE50DE10DE10D8B413D020EE09
:101ADE0002F02B50D9262C50DA2201D829D205003B
:101AEE00FA6EDE50FD6EDE50FE6EDE50FF6EFA5068
:101AFE00695112002BC0D9FF2CC0DAFFDECF31F0B6
:101B0E00DDCF32F031C0D9FF32C0DAFF69C0DFFF5E
:101B1E002BC0D9FF2CC0DAFFDE2A000EDD2208D240
:101B2E00000E0001686F91D068898FD02FC0D9FF49
:101B3E0030C0DAFFDFCF31F0020EDE26DFCF32F01B
:101B4E00000EDD2231C0D9FF32C0DAFFDECF62F0E7
:101B5E00DDCF63F062516311D8A45FD0830E626F44
:101B6E00100E636F5AD020EE02F02B50D9262C5057
:101B7E00DA22DE50DE10DE10D8B427D020EE02F0CE
:101B8E002B50D9262C50DA2201D81BD00500FA6E24
:101B9E00DE50FD6EDE50FE6EDE50FF6EFA5062C0FD
:101BAE00F6FF63C0F7FF000EF86E0F0EF76403D05A
:101BBE000800F55005D0F6CFE9FFF7CFEAFFEF505A
:101BCE0012000001624B632B28D062C0F6FF63C087
:101BDE00F7FF000EF86E2BC0D9FF2CC0DAFFDECF58
:101BEE0031F0DDCF32F031C0D9FF32C0DAFF0F0E47
:101BFE00F76403D00800F55005D0F6CFE9FFF7CF14
:101C0E00EAFFEF50DF6E0001624B632B2BC0D9FF52
:101C1E002CC0DAFFDE2A000EDD2262C0F6FF63C0A2
:101C2E00F7FF000EF86E0F0EF76403D00800F550A4
:101C3E0005D0F6CFE9FFF7CFEAFFEF500009D8B491
:101C4E0077D191D70001688D1FD02DC0F6FF2EC021
:101C5E00F7FF2D4A2E2A000EF86E0800F5CF69F018
:101C6E006951000AD8B473D1640AD8B40DD00D0AE4
:101C7E00D8B40AD0050AD8B457D71F0AD8B456D745
:101C8E00060AD8B4DFD754D168BD41D068A919D09F
:101C9E002FC0D9FF30C0DAFFDFCF31F0040EDE26C1
:101CAE00DFCF32F0000EDD2231C0D9FF32C0DAFFB5
:101CBE00DECF64F0DECF65F0DECF66F0DECF67F00C
:101CCE0019D02FC0D9FF30C0DAFFDFCF31F0020EAE
:101CDE00DE26DFCF32F0000EDD2231C0D9FF32C05A
:101CEE00DAFFDECF64F0DDCF65F0000E65BFFF0ECC
:101CFE00666F676F67AF40D0030E6813671F661F6E
:101D0E00651F646D000E65236623672335D068A9B1
:101D1E0019D02FC0D9FF30C0DAFFDFCF31F0040E5B
:101D2E00DE26DFCF32F0000EDD2231C0D9FF32C009
:101D3E00DAFFDECF64F0DECF65F0DECF66F0DECF09
:101D4E0067F01AD02FC0D9FF30C0DAFFDFCF31F0E5
:101D5E00020EDE26DFCF32F0000EDD2231C0D9FFBB
:101D6E0032C0DAFFDECF33F0DDCF34F033C064F0B3
:101D7E0034C065F0666B676B010E696F0A0E6919E8
:101D8E00D8B41BD06951040D010EF324F66E100E5B
:101D9E00F420F76EF86A000EF8220900F550645D23
:101DAE000900F55065590900F55066590900F550BE
:101DBE006759D8A002D0692BE1D768C031F0030E65
:101DCE003116D8B433D020EE02F02B50D9262C5039
:101DDE00DA22DE50DE10DE10D8B413D020EE02F080
:101DEE002B50D9262C50DA2201D820D00500FA6EBD
:101DFE00DE50FD6EDE50FE6EDE50FF6EFA502D0E82
:101E0E0012002BC0D9FF2CC0DAFFDECF31F0DDCFB0
:101E1E0032F031C0D9FF32C0DAFF2D0EDF6E2BC08B
:101E2E00D9FF2CC0DAFFDE2A000EDD220001695137
:101E3E00606F616B60BF610772D060C031F061C0CE
:101E4E0032F0D89031363236D89031363236010EE5
:101E5E003124F66E100E3220F76EF86A000EF8225C
:101E6E000900F5CF19F00900F5CF1AF00900F5CFEA
:101E7E001BF00A00F5CF1CF064C015F065C016F01B
:101E8E0066C017F067C018F011EC17F015C022F0FD
:101E9E0016C023F017C024F018C025F00A0E266EC7
:101EAE00000E276E000E286E000E296EF6EC17F04F
:101EBE002250300F0001696F20EE02F02B50D92610
:101ECE002C50DA22DE50DE10DE10D8B413D020EE05
:101EDE0002F02B50D9262C50DA2201D820D0050042
:101EEE00FA6EDE50FD6EDE50FE6EDE50FF6EFA5064
:101EFE00695112002BC0D9FF2CC0DAFFDECF31F0B2
:101F0E00DDCF32F031C0D9FF32C0DAFF69C0DFFF5A
:101F1E002BC0D9FF2CC0DAFFDE2A000EDD22000115
:101F2E006007D8A06107602988E16129D8A485D708
:101F3E002DC0F6FF2EC0F7FF2D4A2E2A000EF86E8A
:101F4E000800F5CF69F000016951D8A4B0D5000E94
:101F5E002C6E000E2B6E1200000E00017C6F010E17
:101F6E007E6F000E7D6F000E806F080E7F6F060E67
:101F7E00816F040E826F010E846F000E836F850ECB
:101F8E00156E000E166EB30E176E010E186E000E45
:101F9E001A6E060E196E71EC19F0FF0E0101001586
:101FAE000001606F000E010101150001616F000E4E
:101FBE00010102150001626F000E010103150001FF
:101FCE00636F60C063F0626B616B606B000E01014A
:101FDE0000150001646FFF0E010101150001656F10
:101FEE00000E010102150001666F000E01010315BE
:101FFE000001676F66C067F065C066F064C065F08B
:10200E00646B00C168F001C169F002C16AF003C1DE
:10201E006BF069C068F06AC069F06BC06AF06B6BF8
:10202E00000E68156C6FFF0E69156D6F000E6A1548
:10203E006E6F000E6B156F6F000E01010015000123
:10204E00706F000E010101150001716F000E01018C
:10205E0002150001726FFF0E010103150001736F6F
:10206E00190E05D0D8907333723371337033E82E56
:10207E00F9D76C517011746F6D517111756F6E517E
:10208E007211766F6F517311776F64517411786F8F
:10209E0065517511796F665176117A6F67517711A7
:1020AE007B6F605178118B6F615179118C6F62511A
:1020BE007A118D6F63517B118E6FFF0E2014606F3E
:1020CE00000E2114616F000E2214626F000E231495
:1020DE00636F60C063F0626B616B606B000E201407
:1020EE00646FFF0E2114656F000E2214666F000ED2
:1020FE002314676F66C067F065C066F064C065F054
:10210E00646B20C068F021C069F022C06AF023C061
:10211E006BF069C068F06AC069F06BC06AF06B6BF7
:10212E00000E68156C6FFF0E69156D6F000E6A1547
:10213E006E6F000E6B156F6F000E2014706F000E19
:10214E002114716F000E2214726FFF0E2314736F21
:10215E00190E05D0D8907333723371337033E82E65
:10216E00F9D76C517011746F6D517111756F6E518D
:10217E007211766F6F517311776F64517411786F9E
:10218E0065517511796F665176117A6F67517711B6
:10219E007B6F60517811956F61517911966F625115
:1021AE007A11976F63517B11986F000E8F6F000E2F
:1021BE00906F000E916F000E926F000E936F000ED7
:1021CE00946F3B0E156E100E166E080E186E060EE0
:1021DE00176E13EC12F000017C6F7C05D8A413D09F
:1021EE007D0E156E000E166E000E186E1C0E176EFE
:1021FE000CEC1AF0EEEC19F000017C6F7C05D8A403
:10220E0002D0050E12007C511200000E376E010135
:10221E000051011102110311D8A404D0110E281877
:10222E00D8A4F8D0000506E17F0E031901110211A2
:10223E00D8B4F0D0242807E1252805E1262803E1AB
:10224E002728D8B48DD0000E2410296E000E25102C
:10225E002A6E000E26102B6EFF0E27102C6E2928CC
:10226E0007E12A2805E12B2803E12C28D8B478D0E1
:10227E00000E2410296E000E25102A6EFF0E261059
:10228E002B6EFF0E27102C6E292807E12A2805E158
:10229E002B2803E12C28D8B463D0000E2410296E0D
:1022AE00FF0E25102A6EFF0E26102B6EFF0E271026
:1022BE002C6E292807E12A2805E12B2803E12C287A
:1022CE00D8B44ED024500019296E255001192A6E0B
:1022DE00265002192B6E275003192C6E0C512914FF
:1022EE002D6E0D512A142E6E0E512B142F6E0F5172
:1022FE002C14306E2D502E102F103010D8A409D063
:10230E0024C031F025C032F026C033F027C034F09F
:10231E0008D010C131F011C132F012C133F013C127
:10232E0034F031C015F032C016F033C017F034C09F
:10233E0018F058EC18F015C035F016C036F03550C0
:10234E003610D8A411D031C020F032C021F033C0E5
:10235E0022F034C023F0B3EC0FF0376E375012007A
:10236E003B0E356E100E366E35C015F036C016F0BB
:10237E00080E186E000E176E13EC12F0376E37043F
:10238E00D8A448D0450E166E000E156EB3EC1BF099
:10239E00000E166E000E156EB3EC1BF0000E156ED1
:1023AE00400E166E550E176EAA0E186E70EC1BF0C0
:1023BE00400ECFEC1BF02850CFEC1BF0000E166E2B
:1023CE00000E156EB3EC1BF000C115F001C116F036
:1023DE0002C117F003C118F070EC1BF024C015F009
:1023EE0025C016F026C017F027C018F070EC1BF0B1
:1023FE0000C19CF101C19DF102C19EF103C19FF18B
:10240E0024C0A0F125C0A1F126C0A2F127C0A3F1DE
:10241E0028C099F1375012000001E9AB02D0030E2B
:10242E001200E9B502D0020E1200D2A602D0040E9E
:10243E0012001A0E0E01E56F120EE46F1A0EE36F04
:10244E00120EE26FD4EC1BF0060EE4EC1BF015C07E
:10245E00F6FF16C0F7FF000EF86E0F0EF76403D0EE
:10246E000800F55005D0F6CFE9FFF7CFEAFFEF50A1
:10247E00E4EC1BF0010E1524196E000E16201A6ED8
:10248E0019C0F6FF1AC0F7FF000EF86E0F0EF764B4
:10249E0003D00800F55005D0F6CFE9FFF7CFEAFFDD
:1024AE00EF50E4EC1BF0020E1524196E000E1620F0
:1024BE001A6E19C0F6FF1AC0F7FF000EF86E0F0E57
:1024CE00F76403D00800F55005D0F6CFE9FFF7CF3B
:1024DE00EAFFEF50E4EC1BF0030E1524196E000E0C
:1024EE0016201A6E19C0F6FF1AC0F7FF000EF86E0E
:1024FE000F0EF76403D00800F55005D0F6CFE9FFB4
:10250E00F7CFEAFFEF50E4EC1BF0040E1524196E22
:10251E00000E16201A6E19C0F6FF1AC0F7FF000E35
:10252E00F86E0F0EF76403D00800F55005D0F6CF05
:10253E00E9FFF7CFEAFFEF50E4EC1BF0050E152490
:10254E00196E000E16201A6E19C0F6FF1AC0F7FF8C
:10255E00000EF86E0F0EF76403D00800F55005D08C
:10256E00F6CFE9FFF7CFEAFFEF50E4EC1BF00E01D8
:10257E008451E4EC1BF00E018551E4EC1BF00E01CE
:10258E008251E4EC1BF00E018351E4EC1BF00E01C2
:10259E008051E4EC1BF00E018151E4EC1BF018505D
:1025AE00E4EC1BF01750E4EC1BF00001E98B010E7C
:1025BE0012000001E991E995E999E99B000EEC6F93
:1025CE00000EEB6F000E3D6E000E3C6E000ED26ED6
:1025DE000E01FDB5FDD7D2A605D0FDD70001E993BA
:1025EE008CEC17F060BCFAD7000E0E01FE6F00F0F7
:1025FE0000F000F0A00E0E01FE6FFDA1FED7010E41
:10260E00A06F00F0B20E0E01A26F00F0400E0E0190
:10261E00A36F00F0120E0E01A46F00F00C0E0E014F
:10262E00A76F120EA66F00F0000E0E01976F000E30
:10263E00296E000E286E1A0EE56F120EE46F1F0E35
:10264E00E76FE669000EE96F000EE86F1A0EEB6F8A
:10265E00110EEA6F000E7B6E000E7A6E1A0EE36F8D
:10266E00120EE26F1A0EED6F110EEC6F050EAB6FC0
:10267E00EE0EAA6FC5EC1BF015C02AF016C02BF09B
:10268E002AC0D9FF2BC0DAFFDF500E01846F00F095
:10269E0020EE01F02A50D9262B50DA22DF500E01FF
:1026AE00856F00F020EE02F02A50D9262B50DA2248
:1026BE00DF500E01826F00F020EE03F02A50D92673
:1026CE002B50DA22DF500E01836F00F020EE04F063
:1026DE002A50D9262B50DA22DF500E01806F00F0DF
:1026EE0020EE05F02A50D9262B50DA22DF500E01AB
:1026FE00816F00F0AB0E0E01D86F040ED26E28C0A3
:10270E0017F029C018F0000EE9EC1AF0010E186E41
:10271E00100E176E100EE9EC1AF01D0E186E4A0E02
:10272E00176E140EE9EC1AF0FDEC1AF0590E0E01AC
:10273E00FB6F000E186E120E176E120EE9EC1AF0E9
:10274E001200000E0001A66F000EA56F000EA96FFD
:10275E00B2EC19F015C09FF016C0A0F0B2EC19F053
:10276E0015C0A1F016C0A2F0000120EE0CF0995198
:10277E00D9269A51DA22DECF24F0DECF25F0DECF35
:10278E0026F0DECF27F020EE09F09951D9269A5186
:10279E00DA22DF50286E0CEC11F00001A96FA905AA
:1027AE00D8A488D020EE02F09951D9269A51DA2277
:1027BE00DECF9BF0DDCF9CF0EC0E9B25A76FFF0EBE
:1027CE009C21A86F20EE02F09951D9269A51DA2257
:1027DE00DECF9BF0DDCF9CF099C0D9FF9AC0DAFF17
:1027EE00DF500F0B9D6F9E6BD8909D379E37D89004
:1027FE009D379E379D1F9E1F9D4B9E2B9B519D254A
:10280E00A76F9C519E21A86F000E166E000E156EBE
:10281E00B3EC1BF0000E166E000E156EB3EC1BF033
:10282E009FC015F0A0C016F0B3EC1BF0A1C015F0C0
:10283E00A2C016F0B3EC1BF0F80E0001A725796FBD
:10284E00FF0EA8217A6F68EC15F00001A96FA9059B
:10285E00D8A430D0000EA66F220EA56F000EA46F66
:10286E00220EA36FA3C027F0A4C028F0A7C029F0A2
:10287E00A8C02AF0000E2C6E000E2B6ECCEC15F0BC
:10288E0027C0A5F028C0A6F0A50E156E000E166E78
:10289E00000E186E020E176E000E1A6E240E196EB2
:1028AE004FEC19F0A7C033F0A8C034F07BEC16F053
:1028BE000001A96FA951120017C021F018C022F013
:1028CE00236A246A16D0000E266E000E256ED9ECF1
:1028DE001BF0266ED9EC1BF0256E255021262650B6
:1028EE002222000E2322000E2422020E155E000E5E
:1028FE00165A1650E8E1020E155CD8B0E4D7155002
:10290E001610D8B43BD0000E266E000E256ED9ECF4
:10291E001BF0266E000E256E2550212626502222F3
:10292E00000E2322000E242229D021C019F022C02D
:10293E001AF023C01BF024C01CF0110E05D0D89045
:10294E001C321B321A321932E82EF9D7FF0E21141F
:10295E001D6EFF0E22141E6E000E23141F6E000E2F
:10296E002414206E19501D24216E1A501E20226E22
:10297E001B501F20236E1C502020246E21C019F0E6
:10298E0022C01AF023C01BF024C01CF0110E05D07B
:10299E00D8901C321B321A321932E82EF9D7195040
:1029AE001A101B101C10D8A4C0D721C019F022C0B9
:1029BE001AF023C01BF024C01CF0191E1A1E1B1E79
:1029CE001C1E19C021F01AC022F01BC023F01CC01F
:1029DE0024F021C015F022C016F01200000E0001E6
:1029EE00B06FB10E156E000E166E000E186E040E40
:1029FE00176EDBEC18F0000120EE10F0AA51D9266C
:102A0E00AB51DA22DE2832E1DE2830E1DE282EE17B
:102A1E00DE28D8B412002AD0AAC099F0ABC09AF022
:102A2E00A8EC13F00001B06F1200000E166E040E2B
:102A3E00156E90EC1AF0AAC015F0ABC016F0000E91
:102A4E00186E140E176EDBEC18F0AAC0D9FFABC0CF
:102A5E00DAFF0001DF500F0B050AD8A41200B2EC0A
:102A6E0019F015C0F9F016C0FAF012000001B151BC
:102A7E00AD6FAC6BB1C0AEF0B2C0AFF0AFC0AEF0E8
:102A8E00AF6BFF0EAE17000EAF17AC51AE13AD51BC
:102A9E00AF13AF51030AD8B404D00B0AD8A4120056
:102AAE0005D0AE51030AD8A41200BFD7AE51000A0A
:102ABE00D8B4B2D72A0AD8B4AFD7D60AD8A412003F
:102ACE00ABD7D890000179357B6F7A357C6F01D00A
:102ADE0000F0D2AA08D000017B07D8A07C077B515A
:102AEE007C11D8A4F5D7D2BA47D0E2CEF4FEE3CE0D
:102AFE00F5FEEBC0F0FEECC0F1FE00017951EB25C6
:102B0E007D6F7A51EC217E6F120E7D5D1A0E7E590D
:102B1E00D8A006D0EF0E7D257D6FE50E7E217E6F4F
:102B2E007DC0F2FE7EC0F3FED298D28A79C015F037
:102B3E007AC016F0000E186E280E176E11EC1BF0F0
:102B4E0015C07BF016C07CF001D000F0D2AA08D0E0
:102B5E0000017B07D8A07C077B517C11D8A4F5D748
:102B6E00D2BA0AD0000179510E01E22700017A5142
:102B7E000E01E323010E12005E0E356E100E366E40
:102B8E0044EC1AF0FF000C0E12007ACF2DF07BCF22
:102B9E002EF0130E27247A6E1A0E28207B6E29C073
:102BAE0015F02AC016F02BC017F02CC018F063ECED
:102BBE0014F015C02FF016C030F0316A326A2DC0F5
:102BCE007AFF2EC07BFFFF0E2F140001606F000EE8
:102BDE003014616F000E3114626F000E3214636F89
:102BEE0062C063F061C062F060C061F0606BFF0EA6
:102BFE002FC064F030C065F031C066F032C067F0AF
:102C0E0065C064F066C065F067C066F0676B6415FA
:102C1E00686F000E6515696F000E66156A6F000EFF
:102C2E0067156B6F605168112F6E61516911306EAF
:102C3E0062516A11316E63516B11326E2FC027F0E3
:102C4E0030C028F012000001E9A3120029EC1AF09E
:102C5E00DA0E156E000E166E000E186E0E0E176E34
:102C6E00DBEC18F00001E651D76FD66B20EEE6F0E4
:102C7E00DECFD8F0DDCFD9F0D9C0D8F0D96BFF0EAA
:102C8E00D817000ED917D651D811E66FD751D911D2
:102C9E00E76FACEC1BF006D047EC08F022D0E8EC66
:102CAE000AF01FD020EEE6F0DECFD6F0DDCFD7F063
:102CBE000001D751080AD8B407D0890AD8B40CD06D
:102CCE00070AD8B40CD00DD0D651000AD8B4E7D725
:102CDE00060AD8B4E1D705D0D651000A02D0D65193
:102CEE00DD0A8CEC17F01200140E33240001736F02
:102CFE00000E3420746F73516D6F6C6B73C06EF079
:102D0E0074C06FF06FC06EF06F6BFF0E6E17000E1B
:102D1E006F176C516E11736F6D516F11746F730E5F
:102D2E00156E000E166E000E186E020E176E000E49
:102D3E001A6E100E196E4FEC19F0000E286E0E0E54
:102D4E00276E000E2A6E140E296E000E2C6E000ECB
:102D5E002B6ECCEC15F027C071F028C072F0710EFE
:102D6E00156E000E166E000E186E020E176E000E09
:102D7E001A6E180E196E4FEC19F0EEEC19F00001E8
:102D8E00706F70511200310E0101006F000E016F55
:102D9E00A80E026FC00E036F000E0C6FFF0E0D6FAC
:102DAE00FF0E0E6FFF0E0F6F010E106F000E116FE4
:102DBE00A80E126FC00E136F000E046F000E056F7B
:102DCE00000E066F000E076F000E086F000E096FE3
:102DDE00000E0A6F000E0B6F000E156E010E1564BD
:102DEE0001D00ED01550040D180EF324D96E010E1D
:102DFE00F420DA6EDE6ADE6ADE6ADD6A152AEED746
:102E0E00000E0101206F000E216F000E226F000ECA
:102E1E00236F1200000E1D6E000E1E6E000E1F6E32
:102E2E00000E206E19501A101B101C10D8B42AD088
:102E3E00010E216E06D0D89019361A361B361C3666
:102E4E00212A1CAEF8D7D8901D361E361F362036D6
:102E5E001950155C1A5016581B5017581C501858FC
:102E6E00D8A009D01950155E1A50165A1B50175A71
:102E7E001C50185A1D80D8901C321B321A3219322F
:102E8E00212EE1D71DC015F01EC016F01FC017F081
:102E9E0020C018F012001B6E000E1C6E000E1D6E70
:102EAE00000E1E6E000E1F6E77EC1AF00009D8A4ED
:102EBE001FD01BC0B4FE000E0E01B26FB28100F027
:102ECE0000F077EC1AF0FF0AD8A409D0FD0E1C6EA4
:102EDE00FF0E1D6EFF0E1E6EFF0E1F6E0DD00E012D
:102EEE00B291B8CE1CF0B9CE1DF01E6A1F6A04D086
:102EFE001C681D681E681F681CC017F01DC018F0E6
:102F0E001EC019F01FC01AF012000001E9930E0145
:102F1E00FE514009FE6FFF0E156EFF0E166E3CC081
:102F2E0017F03DC018F01550172616501822E8510C
:102F3E00175CE9511858D8A012D0FF0E156EFF0E6F
:102F4E00166E3CC017F03DC018F0155017261650DF
:102F5E0018221750EA5D1850EB59D8B005D0EACEBA
:102F6E00ECFEEBCEEDFE06D0FF0E3C24EC6FFF0E1A
:102F7E003D20ED6FFB8D1200BC0EF66E370EF76E18
:102F8E00000EF86E01EEB9F010EE06F00900F5CF66
:102F9E00EEFFE550E150FAE1D20EF66E370EF76E07
:102FAE00000EF86E0900F5CF49F00900F5CF4AF092
:102FBE0001EE00F0B90EEE6AE806FDE100EEE9F072
:102FCE00140EEE6AE806FDE100EE38F00F0EEE6A22
:102FDE00E806FDE14B904B92000194EF1BF026505A
:102FEE00271028102910D8B424D0010E2A6E06D02E
:102FFE00D89026362736283629362A2A29AEF8D7EB
:10300E002650225C275023582850245829502558E2
:10301E00D8A008D02650225E2750235A2850245A72
:10302E002950255AD89029322832273226322A2E74
:10303E00E7D722C022F023C023F024C024F025C0FD
:10304E0025F0120015C0D9FF16C0DAFF84CEDFFFBF
:10305E00154A162A15C0D9FF16C0DAFF85CEDFFF36
:10306E00154A162A15C0D9FF16C0DAFF82CEDFFF29
:10307E00154A162A15C0D9FF16C0DAFF83CEDFFF18
:10308E00154A162A15C0D9FF16C0DAFF80CEDFFF0B
:10309E00154A162A15C0D9FF16C0DAFF81CEDFFFFA
:1030AE001200280E1D6E010E1E6E000E1F6E070EF4
:1030BE001F6401D01ED020EE06F01D50D9261E50E2
:1030CE00DA221550DE180FE11650DE180CE11750FB
:1030DE00DE1809E11850DE18D8A405D01DC015F071
:1030EE001EC016F012000D0E1D26000E1E221F2AE7
:1030FE00DED7000E156E000E166E12002CEC19F0B7
:10310E002AEC16F0BF0E156E010E166EB0EC18F00E
:10311E0043500101BF5D4450C0594550C159C25181
:10312E00800A0001E86F4650800AE859D8A008D0FE
:10313E00A7EC1AF00A0E4326000E44224522462220
:10314E00BFC1F3F0C0C1F4F0C1C1F5F0C2C1F6F0D9
:10315E001200000EF2BE010E196EF29EEFC01AF0B2
:10316E00F0C01BF0F1C01CF0F2C01DF019A002D08F
:10317E00F28E01D0F29E15501610D8B40CD015C098
:10318E00D9FF16C0DAFF1AC0DEFF1BC0DEFF1CC05F
:10319E00DEFF1DC0DEFF1AC015F01BC016F01CC0EE
:1031AE0017F01DC018F01200000E1A6E000E196EE8
:1031BE0015C01BF016C01CF013D0D9EC1BF01BC0B1
:1031CE00D9FF1CC0DAFFDF6E1B4A1C2A194A1A2AC5
:1031DE001706D8A018063806D8A039060001E991BE
:1031EE0038503910D8B404D017501810D8A4E5D7D9
:1031FE0019C015F01AC016F012007ACF2FF07BCF3F
:10320E0030F027C015F028C016F029C017F02AC0DC
:10321E0018F063EC14F015C031F016C032F0336ABA
:10322E00346A2FC07AFF30C07BFF31502C6E2B6A70
:10323E00FF0E32142D6E000E33142E6E2B502D10E9
:10324E00276E2C502E10286E1200A1AA1200A19AE1
:10325E00020E0E01D9650AD060A808D0130E52ECEA
:10326E0017F00001E989E995FDEC1AF060B0609065
:10327E0060B2609260A603D060960001E99B60ACDC
:10328E0012000001E9B31200E9830E01FB9D12004A
:10329E00E2CE1BF0E3CE1CF0130E19240E01E26FEA
:1032AE001A0E1A20E36F09D015C0D9FF16C0DAFF27
:1032BE00DF50E4EC1BF0154A162A1706D8A01806A4
:1032CE001728F2E11828D8A4EFD71BC0E2FE1CC0C5
:1032DE00E3FE120017C01EF018C01FF015C01CF040
:1032EE0016C01DF010D01EC0D9FF1FC0DAFFDF5070
:1032FE001B6E1E4A1F2A1CC0D9FF1DC0DAFF1BC041
:10330E00DFFF1C4A1D2A1906D8A01A061928EBE160
:10331E001A28D8B41200E7D7000E8D6E000E8C6EF0
:10332E00000E896E000E8E6E000E8A6E000E8F6E6F
:10333E00000E8B6E3F0E966EFE0E976E3F0E926EC9
:10334E00100E986E93689468070E956EC190C19298
:10335E00C194C1961200000E186E000E176E3950F1
:10336E0004E1020E385CD8A00DD0D9EC1BF0186E1B
:10337E00D9EC1BF0176E020E385E000E395A0001A2
:10338E00E99102D00001E98117C015F018C016F0BE
:10339E001200000E0001726F000E736FD60E746F66
:1033AE00370E756F000E766F6C0E706F000E716FAC
:1033BE00720E2B6E000E2C6E6AC02DF06BC02EF0AE
:1033CE00700E2F6E000E306E5DEC0DF01200FF0EC3
:1033DE000E01E225156EFF0EE321166E0001E9B512
:1033EE0002D0020E1200E9BB02D0030E12001A0E1A
:1033FE000E01E56F120EE46F15C0E6FE16C0E7FE75
:10340E0000F000F0D286010E120015C019F016C0A1
:10341E001AF009D019C0D9FF1AC0DAFFDF50E4EC58
:10342E001BF0194A1A2A1706D8A01806172803E106
:10343E001828D8B412000E01E2291F0EE359D8B095
:10344E001200E8D73CC07AFF3DC07BFFD9EC1BF0E1
:10345E003C6ED9EC1BF03D6ED9EC1BF0386ED9ECFE
:10346E001BF0396ED9EC1BF03A6ED9EC1BF03B6EAB
:10347E00040E385E000E395A1200000E156E000E44
:10348E00166EB0EC18F015C077F016C078F0790E05
:10349E0000016A6F100E6B6F77C06CF078C06DF024
:1034AE0035C06EF036C06FF0D0EC19F01200000E81
:1034BE00176E070E176401D00CD01750010D280E91
:1034CE00F324D96E010EF420DA6E000EDF6E172A89
:1034DE00F0D7B30E156E010E166E29EC18F0120011
:1034EE00000E156E000E166E090E166401D003D076
:1034FE0000F0162AF9D75A0E166E01D000F00E0102
:10350E008AA102D0162EFAD71650D8B415681550C7
:10351E0012003850155C39501658D8A004D038C057
:10352E0015F039C016F015501610D8B412001550FB
:10353E007A2616507B221550385E1650395A1200D4
:10354E00280E156E010E166E000E176E070E1764FE
:10355E0001D0120020EE0CF01550D9261650DA22AA
:10356E00DF2A0D0E1526000E1622172AEFD79E9073
:10357E0047C001F048C002F048EC1BF0404A412A17
:10358E00415004E1040E405CD8A0120036EC1BF052
:10359E00000E416E000E406E12000B0ECF6EDC0E52
:1035AE00CE6ECECF47F0CFCF48F09E909D80D80EF6
:1035BE00156E370E166E000E176EA5EC1BF0010E73
:1035CE00CD6E1200196E19C0B4FE17C07EFE18C063
:1035DE007FFEF2CF1AF0000EF26E7ECEB6FE7FCEDA
:1035EE00B7FE1AC0F2FF77EC1AF012007DEC1BF05A
:1035FE0020C024F021C025F022C026F023C027F0E1
:10360E0025A404D00001E985010E12000001E99500
:10361E00000E120015501702F3CF19F0F4CF1AF066
:10362E0015501802F3501A2616501702F3501A2688
:10363E0019C015F01AC016F01200E00E0001EF6F5F
:10364E00C20EF06F1E0EF16F4D0EF26F3A0E156E2A
:10365E00370E166E000E176EA5EC1BF01200000151
:10366E00FD51FE11FF11D8B4120001D81200050051
:10367E00FA6EFD51FD6EFE51FE6EFF51FF6EFA5059
:10368E001200CDA407D0CD900250CF6E01C0CEFF58
:10369E00CD8012000250CF6E01C0CEFF1200E0ECC2
:1036AE0012F05EEC1AF0E1EC1BF024EC1BF0BAEC1D
:1036BE001BF063EC1BF01200430E156E000E166E1F
:1036CE00B0EC18F00A0E4326000E44224522462284
:1036DE0012001850E4EC1BF01750E4EC1BF01650DF
:1036EE00E4EC1BF01550E4EC1BF01200110E52EC42
:1036FE0017F017C020F018C021F019C022F01AC020
:10370E0023F01200E7EC1BF093EC19F0C0EC1BF069
:10371E00D4EC1AF056EC1BF01200EAEC1BF089EC1C
:10372E001BF0F28EF28C85EC18F0FDD7010E000125
:10373E00EF27000EF023F123F223120015C0FDF047
:10374E0016C0FEF017C0FFF01200CAEC1BF015C039
:10375E003EF016C03FF012001650E4EC1BF0155070
:10376E00E4EC1BF01200FDEC1AF00009D8A41200D4
:10377E00FAD7000ED36E000E9B6E1200B90E156EA8
:10378E00010E166E12007ACF15F07BCF16F01200D6
:10379E00156E1550E4EC1BF01200E2CEEDF0E3CE08
:1037AE00EEF0120061CF7EFE0E017E51120002007D
:1037BE0000000001CAEC16F01200E8CF61FF120003
:0C37CE00D09E12004041120012001200B8
:020000040001F9
:06FFF800A0F4C7FFF8F7BA
:00000001FF
